{
  "_format": "hh-sol-artifact-1",
  "contractName": "IbericoTraceability",
  "sourceName": "contracts/IbericoTraceability.sol",
  "abi": [
    {
      "inputs": [],
      "stateMutability": "nonpayable",
      "type": "constructor"
    },
    {
      "anonymous": false,
      "inputs": [
        {
          "indexed": false,
          "internalType": "string",
          "name": "loteId",
          "type": "string"
        },
        {
          "indexed": false,
          "internalType": "string",
          "name": "identification",
          "type": "string"
        }
      ],
      "name": "LoteRegistered",
      "type": "event"
    },
    {
      "anonymous": false,
      "inputs": [
        {
          "indexed": false,
          "internalType": "string",
          "name": "loteId",
          "type": "string"
        },
        {
          "indexed": false,
          "internalType": "bool",
          "name": "certified",
          "type": "bool"
        }
      ],
      "name": "QualityConfirmed",
      "type": "event"
    },
    {
      "anonymous": false,
      "inputs": [
        {
          "indexed": false,
          "internalType": "string",
          "name": "loteId",
          "type": "string"
        },
        {
          "indexed": false,
          "internalType": "string",
          "name": "stageName",
          "type": "string"
        },
        {
          "indexed": false,
          "internalType": "string",
          "name": "txHash",
          "type": "string"
        }
      ],
      "name": "StageCertified",
      "type": "event"
    },
    {
      "inputs": [
        {
          "internalType": "string",
          "name": "_loteId",
          "type": "string"
        },
        {
          "internalType": "string",
          "name": "_stageName",
          "type": "string"
        },
        {
          "internalType": "uint256",
          "name": "_entryTime",
          "type": "uint256"
        },
        {
          "internalType": "uint256",
          "name": "_exitTime",
          "type": "uint256"
        },
        {
          "internalType": "string",
          "name": "_iotMlDataHash",
          "type": "string"
        },
        {
          "internalType": "uint256",
          "name": "_averageWeight",
          "type": "uint256"
        }
      ],
      "name": "certifyStage",
      "outputs": [],
      "stateMutability": "nonpayable",
      "type": "function"
    },
    {
      "inputs": [
        {
          "internalType": "string",
          "name": "",
          "type": "string"
        }
      ],
      "name": "lotes",
      "outputs": [
        {
          "internalType": "string",
          "name": "identification",
          "type": "string"
        },
        {
          "internalType": "uint256",
          "name": "initialAnimals",
          "type": "uint256"
        },
        {
          "internalType": "bool",
          "name": "isCertified",
          "type": "bool"
        }
      ],
      "stateMutability": "view",
      "type": "function"
    },
    {
      "inputs": [],
      "name": "owner",
      "outputs": [
        {
          "internalType": "address",
          "name": "",
          "type": "address"
        }
      ],
      "stateMutability": "view",
      "type": "function"
    },
    {
      "inputs": [
        {
          "internalType": "string",
          "name": "_loteId",
          "type": "string"
        },
        {
          "internalType": "string",
          "name": "_identification",
          "type": "string"
        },
        {
          "internalType": "uint256",
          "name": "_animals",
          "type": "uint256"
        }
      ],
      "name": "registerLote",
      "outputs": [],
      "stateMutability": "nonpayable",
      "type": "function"
    }
  ],
  "bytecode": "0x608060405234801561001057600080fd5b5033600160006101000a81548173ffffffffffffffffffffffffffffffffffffffff021916908373ffffffffffffffffffffffffffffffffffffffff16021790555061109a806100616000396000f3fe608060405234801561001057600080fd5b506004361061004c5760003560e01c806332d463b1146100515780635a497a70146100835780638da5cb5b1461009f578063ba9e9e23146100bd575b600080fd5b61006b60048036038101906100669190610746565b6100d9565b60405161007a93929190610842565b60405180910390f35b61009d600480360381019061009891906108ac565b6101ae565b005b6100a761049e565b6040516100b491906109ce565b60405180910390f35b6100d760048036038101906100d291906109e9565b6104c4565b005b60008180516020810182018051848252602083016020850120818352809550505050505060009150905080600001805461011290610aa3565b80601f016020809104026020016040519081016040528092919081815260200182805461013e90610aa3565b801561018b5780601f106101605761010080835404028352916020019161018b565b820191906000526020600020905b81548152906001019060200180831161016e57829003601f168201915b5050505050908060010154908060020160009054906101000a900460ff16905083565b600160009054906101000a900473ffffffffffffffffffffffffffffffffffffffff1673ffffffffffffffffffffffffffffffffffffffff163373ffffffffffffffffffffffffffffffffffffffff161461023e576040517f08c379a000000000000000000000000000000000000000000000000000000000815260040161023590610b46565b60405180910390fd5b60405160200161024d90610bbd565b60405160208183030381529060405280519060200120856040516020016102749190610c03565b60405160208183030381529060405280519060200120036102d557611b588110156102d4576040517f08c379a00000000000000000000000000000000000000000000000000000000081526004016102cb90610cb2565b60405180910390fd5b5b600080876040516102e69190610c03565b9081526020016040518091039020905060405180608001604052808781526020018681526020018581526020018481525081600301876040516103299190610c03565b9081526020016040518091039020600082015181600001908161034c9190610e7e565b50602082015181600101556040820151816002015560608201518160030190816103769190610e7e565b5090505080600401869080600181540180825580915050600190039060005260206000200160009091909190915090816103b09190610e7e565b506040516020016103c090610f9c565b60405160208183030381529060405280519060200120866040516020016103e79190610c03565b604051602081830303815290604052805190602001200361045a5760018160020160006101000a81548160ff0219169083151502179055507f552a51bdb0e0aac6d7781fae443a321ba02cfa9a224d20cd7e19e2c8bea34667876001604051610451929190610fb1565b60405180910390a15b7fb6a139949e74b13695fbc2bfc807506bb37d7f2483eea0bbb50f0dcd5d371c1087878560405161048d93929190610fe1565b60405180910390a150505050505050565b600160009054906101000a900473ffffffffffffffffffffffffffffffffffffffff1681565b600160009054906101000a900473ffffffffffffffffffffffffffffffffffffffff1673ffffffffffffffffffffffffffffffffffffffff163373ffffffffffffffffffffffffffffffffffffffff1614610554576040517f08c379a000000000000000000000000000000000000000000000000000000000815260040161054b90610b46565b60405180910390fd5b600080846040516105659190610c03565b90815260200160405180910390209050828160000190816105869190610e7e565b5081816001018190555060008160020160006101000a81548160ff0219169083151502179055507f14b037b79653a0abc1e2588de20bc8ff0b77a3bf0d0a283a8626d5b8c8c77c3084846040516105de92919061102d565b60405180910390a150505050565b6000604051905090565b600080fd5b600080fd5b600080fd5b600080fd5b6000601f19601f8301169050919050565b7f4e487b7100000000000000000000000000000000000000000000000000000000600052604160045260246000fd5b6106538261060a565b810181811067ffffffffffffffff821117156106725761067161061b565b5b80604052505050565b60006106856105ec565b9050610691828261064a565b919050565b600067ffffffffffffffff8211156106b1576106b061061b565b5b6106ba8261060a565b9050602081019050919050565b82818337600083830152505050565b60006106e96106e484610696565b61067b565b90508281526020810184848401111561070557610704610605565b5b6107108482856106c7565b509392505050565b600082601f83011261072d5761072c610600565b5b813561073d8482602086016106d6565b91505092915050565b60006020828403121561075c5761075b6105f6565b5b600082013567ffffffffffffffff81111561077a576107796105fb565b5b61078684828501610718565b91505092915050565b600081519050919050565b600082825260208201905092915050565b60005b838110156107c95780820151818401526020810190506107ae565b60008484015250505050565b60006107e08261078f565b6107ea818561079a565b93506107fa8185602086016107ab565b6108038161060a565b840191505092915050565b6000819050919050565b6108218161080e565b82525050565b60008115159050919050565b61083c81610827565b82525050565b6000606082019050818103600083015261085c81866107d5565b905061086b6020830185610818565b6108786040830184610833565b949350505050565b6108898161080e565b811461089457600080fd5b50565b6000813590506108a681610880565b92915050565b60008060008060008060c087890312156108c9576108c86105f6565b5b600087013567ffffffffffffffff8111156108e7576108e66105fb565b5b6108f389828a01610718565b965050602087013567ffffffffffffffff811115610914576109136105fb565b5b61092089828a01610718565b955050604061093189828a01610897565b945050606061094289828a01610897565b935050608087013567ffffffffffffffff811115610963576109626105fb565b5b61096f89828a01610718565b92505060a061098089828a01610897565b9150509295509295509295565b600073ffffffffffffffffffffffffffffffffffffffff82169050919050565b60006109b88261098d565b9050919050565b6109c8816109ad565b82525050565b60006020820190506109e360008301846109bf565b92915050565b600080600060608486031215610a0257610a016105f6565b5b600084013567ffffffffffffffff811115610a2057610a1f6105fb565b5b610a2c86828701610718565b935050602084013567ffffffffffffffff811115610a4d57610a4c6105fb565b5b610a5986828701610718565b9250506040610a6a86828701610897565b9150509250925092565b7f4e487b7100000000000000000000000000000000000000000000000000000000600052602260045260246000fd5b60006002820490506001821680610abb57607f821691505b602082108103610ace57610acd610a74565b5b50919050565b7f536f6c6f20656c2061646d696e6973747261646f72207075656465207265676960008201527f7374726172000000000000000000000000000000000000000000000000000000602082015250565b6000610b3060258361079a565b9150610b3b82610ad4565b604082019050919050565b60006020820190508181036000830152610b5f81610b23565b9050919050565b600081905092915050565b7f736563616465726f000000000000000000000000000000000000000000000000600082015250565b6000610ba7600883610b66565b9150610bb282610b71565b600882019050919050565b6000610bc882610b9a565b9150819050919050565b6000610bdd8261078f565b610be78185610b66565b9350610bf78185602086016107ab565b80840191505092915050565b6000610c0f8284610bd2565b915081905092915050565b7f456c207065736f206465206c6173207069657a6173206e6f2063756d706c652060008201527f656c206d696e696d6f20706172612063657274696669636163696f6e2028376b60208201527f6729000000000000000000000000000000000000000000000000000000000000604082015250565b6000610c9c60428361079a565b9150610ca782610c1a565b606082019050919050565b60006020820190508181036000830152610ccb81610c8f565b9050919050565b60008190508160005260206000209050919050565b60006020601f8301049050919050565b600082821b905092915050565b600060088302610d347fffffffffffffffffffffffffffffffffffffffffffffffffffffffffffffffff82610cf7565b610d3e8683610cf7565b95508019841693508086168417925050509392505050565b6000819050919050565b6000610d7b610d76610d718461080e565b610d56565b61080e565b9050919050565b6000819050919050565b610d9583610d60565b610da9610da182610d82565b848454610d04565b825550505050565b600090565b610dbe610db1565b610dc9818484610d8c565b505050565b5b81811015610ded57610de2600082610db6565b600181019050610dcf565b5050565b601f821115610e3257610e0381610cd2565b610e0c84610ce7565b81016020851015610e1b578190505b610e2f610e2785610ce7565b830182610dce565b50505b505050565b600082821c905092915050565b6000610e5560001984600802610e37565b1980831691505092915050565b6000610e6e8383610e44565b9150826002028217905092915050565b610e878261078f565b67ffffffffffffffff811115610ea057610e9f61061b565b5b610eaa8254610aa3565b610eb5828285610df1565b600060209050601f831160018114610ee85760008415610ed6578287015190505b610ee08582610e62565b865550610f48565b601f198416610ef686610cd2565b60005b82811015610f1e57848901518255600182019150602085019450602081019050610ef9565b86831015610f3b5784890151610f37601f891682610e44565b8355505b6001600288020188555050505b505050505050565b7f646973747269627563696f6e0000000000000000000000000000000000000000600082015250565b6000610f86600c83610b66565b9150610f9182610f50565b600c82019050919050565b6000610fa782610f79565b9150819050919050565b60006040820190508181036000830152610fcb81856107d5565b9050610fda6020830184610833565b9392505050565b60006060820190508181036000830152610ffb81866107d5565b9050818103602083015261100f81856107d5565b9050818103604083015261102381846107d5565b9050949350505050565b6000604082019050818103600083015261104781856107d5565b9050818103602083015261105b81846107d5565b9050939250505056fea2646970667358221220f498c0b86ea469c645fe0b6d1cf7f63fed7ef573244b6c5821c47f28682f82ca64736f6c63430008130033",
  "linkReferences": {},
  "deployedLinkReferences": {}
}